:1000000079C0000093C0000091C000008FC00000C4
:100010008DC000008BC0000089C0000087C00000B8
:1000200085C0000083C0000081C000000C94190A44
:100030000C94C30A7BC0000079C0000077C00000A8
:1000400075C0000073C0000071C000006FC00000E8
:100050006DC000006BC0000069C0000067C00000F8
:1000600065C0000063C0000061C000005FC0000008
:100070005DC000002E034C005500460041002000EA
:100080004D006100730073002000530074006F0086
:1000900072006100670065002000440065006D008B
:1000A0006F00000018034400650061006E0020002E
:1000B000430061006D0065007200610000000403F0
:1000C0000904090220000101008032090400000235
:1000D000080650000705830240000507050402409A
:1000E00000051201100100000008EB03452001008B
:1000F0000102DC0111241FBECFEFD2E0DEBFCDBF75
:1001000011E0A0E0B1E0E8EFFBE102C005900D9244
:10011000A437B107D9F721E0A4E7B1E001C01D92EF
:10012000A438B207E1F777D00C94FA0D69CF3C9868
:10013000449A3D98459A089580910001909101015B
:10014000A0910201B0910301892B8A2B8B2B11F511
:100150002BB181E090E00090750102C0880F991FDB
:100160000A94E2F7809582238BB980EA96E8A1E0B1
:10017000B0E08093000190930101A0930201B0933D
:10018000030180917501909176010196909376011B
:10019000809375018091750190917601079741F4E4
:1001A00080917401811104C05FD381E08093740158
:1001B0008091000190910101A0910201B091030191
:1001C0000197A109B1098093000190930101A093C7
:1001D0000201B0930301089584B7877F84BF0FB6EF
:1001E000F894A895809160008861809360001092D7
:1001F00060000FBE90E080E80FB6F8948093610035
:10020000909361000FBE0E940A0AD7D1D4D4811105
:1002100001C0FFCFCFC4E0DF78943A9A80E090E04D
:1002200061E070E04AB19B01082E01C0220F0A94E0
:10023000EAF7342F322B3AB93BB1232B2BB9019675
:100240008730910579F773DF34990AC0359908C072
:1002500084E091E00E94E30C0E946B0C6DDFF8CF0C
:1002600080E090E008950895089584E091E00C9472
:10027000C60C84E091E00C94850CE4C4292F33274C
:100280002230310559F02330310569F02130310534
:10029000E9F482E190E022EE30E01CC080E290E0E0
:1002A00022EC30E017C099278130910549F028F001
:1002B000029761F4E4E7F0E005C0EEEBF0E002C085
:1002C000E4EAF0E0849190E09F0104C080E090E0D7
:1002D00020E030E0FA0131832083089584B1876003
:1002E00084B92398289A2B9A81E08DBD8CE58CBD2A
:1002F00008958EBD0DB407FEFDCF8EB50895EF9223
:10030000FF920F931F93CF93DF93FC01208101E0B5
:1003100010E001C0000F6A95EAF7302F30952323D3
:1003200020839A01277F2115314099F47A01EC014D
:100330008DE3DFDF8AE2DDDF80E8DBDFE11461E00F
:10034000F60611F486EA01C087EAD3DF8881082B1C
:100350000883DF91CF911F910F91FF90EF90089547
:10036000AF92BF92CF92DF92EF92FF920F931F93C3
:10037000CF93DF937C01842F5901F7019081C1E075
:10038000D0E001C0CC0F6A95EAF72C2F209592237C
:100390009083AFDF6501C6018A199B098017910719
:1003A00034F480E0A6DFF60181936F01F4CFF7010A
:1003B0008081C82BC083DF91CF911F910F91FF9057
:1003C000EF90DF90CF90BF90AF9008950F931F9361
:1003D000CF93DF9300D0CDB7DEB702E010E09E01EF
:1003E0002F5F3F4F47ED50E0BBDF89818095881F2D
:1003F0008827881F0F900F90DF91CF911F910F9149
:100400000895BF92CF92DF92EF92FF920F931F93C6
:10041000CF93DF937C01162FB72EEA01690100FF0D
:1004200013C0FC01208181E090E001C0880F6A9533
:10043000EAF780958223808384E85BDF80E059DFE0
:1004400080E057DF80E055DF209771F401FF1DC089
:10045000F701208181E090E0012E01C0880F0A940D
:10046000EAF7822B80830BC01C141D047CF7CC0E92
:10047000DD1E89913EDFCC15DD05D9F7E7CF612F71
:100480007B2DC701A3DF8111FACFDF91CF911F919F
:100490000F91FF90EF90DF90CF90BF900895CF9293
:1004A000DF92EF92FF920F931F93CF93DF938C0114
:1004B000F62EE72ED42EC52EFC018081C1E0D0E0BF
:1004C00001C0CC0F6A95EAF79C2F90958923808311
:1004D00083E80FDF8C2D8F770CDF8D2D0ADF80E016
:1004E00008DFF8018081C82BC0836F2D7E2DC801E5
:1004F0006DDF8111FACFDF91CF911F910F91FF90A6
:10050000EF90DF90CF9008959F92AF92BF92CF92DD
:10051000DF92EF92FF920F931F93CF93DF936C01C3
:10052000F62EB72EA42E952EE901E0FE18C0FC0190
:10053000208181E090E001C0880F6A95EAF78095FC
:10054000822380838BE1D5DE892D8F77D2DE8A2DC1
:10055000D0DE80E0CEDE80E0CCDE80E0CADE209718
:1005600071F4E1FE1EC0F601208181E090E00F2CC5
:1005700001C0880F0A94EAF7822B80830CC0101602
:1005800011067CF70C0F1D1F80E0B3DE8993C017A6
:10059000D107D1F7E6CF6F2D7B2DC60117DF811173
:1005A000FACFDF91CF911F910F91FF90EF90DF90E5
:1005B000CF90BF90AF909F900895279A269A259A42
:1005C000249A2F9A2E9A2D9A2C9A3F9A479A86DE31
:1005D00040E051E067E070E085E290E090DE40E0CE
:1005E00051E066E070E085E290E089DE40E051E0B5
:1005F00065E070E085E290E082DE40E051E064E09A
:1006000070E085E290E07BCE2F923F924F925F9216
:100610006F927F928F929F92AF92BF92CF92DF9212
:10062000EF92FF920F93CF93DF93CDB7DEB727976B
:100630000FB6F894DEBF0FBECDBF9B838A836A01DD
:100640007B0159017CD68111F7C0B701A601415049
:10065000510961097109C12CD12CCA14DB0409F4B8
:10066000E2C02A013B01AFEF4A1A5A0A6A0A7A0A23
:1006700076956795579547954A01D301C201B6957E
:10068000A795979587951C01E12CF12CD301C20108
:1006900081709927AA27BB278C839D83AE83BF8354
:1006A0008091E80085FF0CC08091F10089838C81E6
:1006B0009D81AE81BF81892B8A2B8B2B51F052C03B
:1006C0008091E8008B778093E80039D6882361F326
:1006D000B3C09FEFE916F10409F00CF5E114F10441
:1006E00011F401E014C0AFEFEA16F10479F402E06E
:1006F00021E030E0AE014F5F5F4F67E070E085E2E0
:1007000090E07FDEA10167E070E06BC000E021E0D7
:1007100030E0AE014F5F5F4F67E070E06EC0E11404
:10072000B1E0FB0611F401E015C0EFEFEE16E1E0D9
:10073000FE0679F402E021E030E0AE014F5F5F4F4A
:1007400066E070E085E290E05CDEA10166E070E0CA
:1007500048C000E021E030E0AE014F5F5F4F66E04F
:1007600070E04BC0FFEFEF16F10409F00CF5E11457
:10077000F10411F401E014C08FEFE816F10479F4EC
:1007800002E021E030E0AE014F5F5F4F65E070E0D6
:1007900085E290E036DEA40165E070E022C000E072
:1007A00021E030E0AE014F5F5F4F65E070E025C0B3
:1007B000E11491E0F90611F401E018C0AFEFEA1678
:1007C000A1E0FA0691F402E021E030E0AE014F5FD3
:1007D0005F4F64E070E085E290E013DEA40164E026
:1007E00070E085E290E05BDE0BC000E021E030E0ED
:1007F000AE014F5F5F4F64E070E085E290E001DEA4
:10080000EA81FB8180AD811117C0FFEFEF1AFF0A6B
:10081000E11482E0F80609F043CF9FEFC91AD90A24
:10082000B301A2011ACF8091E80085FD05C0809137
:10083000E8008B778093E80027960FB6F894DEBF28
:100840000FBECDBFDF91CF910F91FF90EF90DF9062
:10085000CF90BF90AF909F908F907F906F905F9060
:100860004F903F902F9008950F93CF93DF93C0E068
:10087000D0E0209711F401E006C0CF3FD10511F47C
:1008800002E001C000E021E030E040E050E067E03D
:1008900070E085E290E0B5DD2196C11581E0D807D2
:1008A00041F7C0E0D0E0AE0167E070E085E290E0A3
:1008B000F6DD2196C031D105B1F7C0E0D0E0209738
:1008C00011F401E006C0CF3FD10511F402E001C0F0
:1008D00000E021E030E040E050E066E070E085E2DA
:1008E00090E08FDD2196C11581E0D80741F7C0E087
:1008F000D0E0AE0166E070E085E290E0D0DD2196C8
:10090000C031D105B1F7C0E0D0E0209711F401E08B
:1009100006C0CF3FD10511F402E001C000E021E0A4
:1009200030E040E050E065E070E085E290E069DDB5
:100930002196C11581E0D80741F7C0E0D0E0AE01B3
:1009400065E070E085E290E0AADD2196C031D10536
:10095000B1F7C0E0D0E0209711F401E006C0CF3F2E
:10096000D10511F402E001C000E021E030E040E0F8
:1009700050E064E070E085E290E043DD2196C1152F
:1009800081E0D80741F7C0E0D0E0AE0164E070E05C
:1009900085E290E084DD2196C031D105B1F7DF9189
:1009A000CF910F9108952F923F924F925F926F9245
:1009B0007F928F929F92AF92BF92CF92DF92EF92EF
:1009C000FF920F931F93CF93DF93CDB7DEB7299795
:1009D0000FB6F894DEBF0FBECDBF9B838A836A013A
:1009E0007B013D832C83ABD48111CBC081E0C81A3D
:1009F000D108E108F108612C712CAC81BD816A1627
:100A00007B0609F4B5C016012701BFEF2B1A3B0A7C
:100A10004B0A5B0AF694E794D794C79452014101BC
:100A2000B694A79497948794A12CB12CD201C101BC
:100A300081709927AA27BB278E839F83A887B987B0
:100A40008091E80085FF09C08E819F81A885B985C6
:100A5000892B8A2B8B2B51F03EC08091E8008E773A
:100A60008093E8006CD4882379F38BC09FEFA9169C
:100A7000B10409F0BCF4A114B10419F4EE24E39418
:100A800008C0AFEFAA16B10419F452E0E52E01C078
:100A9000E12C01E010E09E012F5F3F4FA40167E0D1
:100AA00070E04DC0A114B1E0BB0619F4EE24E3944C
:100AB00009C0EFEFAE16E1E0BE0619F442E0E42E05
:100AC00001C0E12C01E010E09E012F5F3F4FA40127
:100AD00066E070E034C0FFEFAF16B10409F0BCF47B
:100AE000A114B10419F4EE24E39408C08FEFA81602
:100AF000B10419F432E0E32E01C0E12C01E010E072
:100B00009E012F5F3F4FA60165E070E018C0A11461
:100B100091E0B90619F4EE24E39409C0AFEFAA16E8
:100B2000A1E0BA0619F422E0E22E01C0E12C01E0B6
:100B300010E09E012F5F3F4FA60164E070E085E268
:100B400090E0E2DC89818093F100EA81FB8180AD55
:100B5000811117C0FFEFAF1ABF0AA11482E0B806D7
:100B600009F06ECF9FEF691A790A7201610145CFD2
:100B70008091E80085FD05C08091E8008E77809324
:100B8000E80029960FB6F894DEBF0FBECDBFDF9107
:100B9000CF911F910F91FF90EF90DF90CF90BF907A
:100BA000AF909F908F907F906F905F904F903F900D
:100BB0002F900895089581E008950F931F93CF9388
:100BC000DF93EC01862F48A15F8D6E8D7D8D0BA18B
:100BD0001AA14115510521E06207710568F0809165
:100BE0003F01807F856080933F0181E280934901CE
:100BF00010924A0180E021C09801882319F0CE01AB
:100C0000D2DE02C0CE0100DDC801A0E0B0E029E0E4
:100C1000880F991FAA1FBB1F2A95D1F74C895D89A0
:100C20006E897F898A019B01081B190B2A0B3B0BDC
:100C30000C8B1D8B2E8B3F8B81E0DF91CF911F9111
:100C40000F910895CF92DF92EF92FF920F931F932F
:100C5000CF93DF93CDB7DEB728970FB6F894DEBFFA
:100C60000FBECDBF8C01FC01838D8D3109F4AAC06C
:100C700090F4823109F44CC038F4882309F4D6C0CA
:100C8000833009F479C0D8C08A3109F4B5C08B31FA
:100C900009F4CCC0D1C0883209F4A8C090F58E31D7
:100CA00009F4C4C0853209F0C7C08FEF9FEFA0E000
:100CB000B0E08D839E83AF83B88780E092E0A0E0B0
:100CC000B0E089839A83AB83BC8340E050E064E06A
:100CD00070E0CE01059652D140E050E064E070E053
:100CE000CE0101964BD18091E8008E778093E80089
:100CF000F80184899589A689B7890897A109B1095E
:100D000090C08A3209F470C08F3209F48FC094C049
:100D1000F801E78CF68C848D837019F4858D882317
:100D200041F080913F01807F856080933F0184E2A4
:100D30008AC06701F5E2EF16F10418F094E2C92EBB
:100D4000D12C40E050E0B6018FE491E0CED060E0DD
:100D500070E0C7018C199D0994D08091E8008E77CE
:100D60008093E800F80184899589A689B7898C1950
:100D70009D09A109B10955C0F801F78CEF2CF2E1EA
:100D8000FF1510F482E1E82ECE2CD12C40E050E08B
:100D9000B6018DE391E0A9D08F2D90E060E070E086
:100DA0008C199D096ED08091E8008E778093E800C1
:100DB000F80184899589A689B7898E199109A109B5
:100DC000B1092FC0F801848D82FFABCFF4DE811111
:100DD0002DC080913F01807F846080933F011092FD
:100DE000490110924A013DC060E001C061E0C801C4
:100DF000E4DE81112BC035C01092F1001092F10099
:100E00001092F1001092F1008091E8008E778093AB
:100E1000E800F80184899589A689B7890497A10912
:100E2000B109848B958BA68BB78B10C0F801148AFF
:100E3000158A168A178A0AC080913F01807F8560D3
:100E400080933F0180E280934901CBCF80913F01A5
:100E5000807F80933F011092490110924A0181E006
:100E600001C080E028960FB6F894DEBF0FBECDBF5C
:100E7000DF91CF911F910F91FF90EF90DF90CF9076
:100E80000895EF92FF920F931F93CF93DF937C010E
:100E90008B016115710521F0FB01C081D18102C078
:100EA000C0E0D0E04CD2811119C0CE15DF05A8F406
:100EB0008091E80085FD0DC08091E8008E778093D9
:100EC000E8000115110571F3F801D183C08385E0B5
:100ED00005C01092F1002196E8CF80E0DF91CF911C
:100EE0001F910F91FF90EF900895CF92DF92EF92B4
:100EF000FF920F931F93CF93DF93EC018B017A0145
:100F00001ED2811132C0E114F10439F0F701808161
:100F10009181081B190BC80FD91FC12CD12C0115A9
:100F2000110511F18091E80085FD15C08091E80060
:100F30008E778093E800E114F10449F0F701808195
:100F40009181C80ED91ED182C08285E00EC0F7D132
:100F5000882329F30AC089918093F1000150110977
:100F6000FFEFCF1ADF0ADBCF80E0DF91CF911F9137
:100F70000F91FF90EF90DF90CF900895CF92DF9286
:100F8000EF92FF920F931F93CF93DF93EC018B01AE
:100F90007A01D5D1811137C0C8010197C80FD91F77
:100FA000E114F10439F0F70180819181081B190BDC
:100FB000C81BD90BC12CD12C0115110519F1809139
:100FC000E80085FD15C08091E8008E778093E800E9
:100FD000E114F10449F0F70180819181C80ED91E16
:100FE000D182C08285E00FC0AAD1882329F30BC02B
:100FF00088818093F100219701501109FFEFCF1AEA
:10100000DF0ADACF80E0DF91CF911F910F91FF903F
:10101000EF90DF90CF900895CF92DF92EF92FF9202
:101020000F931F93CF93DF93EC018B017A0187D14C
:10103000811132C0E114F10439F0F701808191810E
:10104000081B190BC80FD91FC12CD12C0115110574
:1010500011F18091E80085FD15C08091E8008B7743
:101060008093E800E114F10449F0F7018081918157
:10107000C80ED91ED182C08285E00EC060D18823FF
:1010800029F30AC08091F100899301501109FFEF03
:10109000CF1ADF0ADBCF80E0DF91CF911F910F9154
:1010A000FF90EF90DF90CF900895209182013091D2
:1010B00083012617370748F06115710539F420912F
:1010C000E8002E772093E80001C0B901FC0120E080
:1010D0006115710561F180917B018823D9F185301B
:1010E000D9F18091E80083FD39C08091E80082FD4C
:1010F0002BC08091E80080FFEBCF8091F20090E060
:101100006115710551F08830910538F421912093D3
:10111000F100615071090196F3CF21E0089709F0C1
:1011200020E08091E8008E778093E800D1CF2111F4
:10113000D2CF0AC080917B01882361F0853061F0B5
:101140008091E80083FD0AC08091E80082FFF2CF21
:1011500080E0089582E0089583E0089581E0089595
:1011600020918201309183012617370748F06115DD
:10117000710539F42091E8002E772093E80001C032
:10118000B901FC0120E06115710579F180917B01C5
:10119000882309F43DC0853009F43CC08091E80003
:1011A00083FD3AC08091E80082FD2CC08091E80068
:1011B00080FFE9CF8091F20090E06115710559F050
:1011C0008830910540F424912093F10031966150CC
:1011D00071090196F2CF21E0089709F020E0809193
:1011E000E8008E778093E800CECF2111CFCF0AC0E0
:1011F00080917B01882361F0853061F08091E80067
:1012000083FD0AC08091E80082FFF2CF80E008955C
:1012100082E0089583E0089581E00895982F953045
:1012200068F59093E900981739F07091EC002091DF
:10123000ED005091F00003C0242F762F50E021FDE7
:1012400002C09F5FECCF3091EB003E7F3093EB000C
:101250003091ED003D7F3093ED003091EB00316037
:101260003093EB007093EC002093ED005093F0006E
:101270002091EE0027FDE5CF80E008958F708093E8
:10128000E90081E008950F931F93CF93DF93062F1A
:10129000EC0110E0101771F19881911103C01F5FEC
:1012A0002596F8CF2C81A981BA816B81892F8F7007
:1012B000853010F080E01FC0223010F442E001C001
:1012C00046E0E8E0F0E020E0EA17FB0720F42F5FBB
:1012D000EE0FFF1FF9CF2295207F422B6295660FFC
:1012E000660F607C991F9927991F692B97DF8111E1
:1012F000D6CFE0CF81E0DF91CF911F910F9108957C
:1013000080917C0187FF11C08091E80082FD05C0BB
:1013100080917B018111F8CF11C08091E8008B771B
:101320000BC080917B01882349F08091E80080FF09
:10133000F8CF8091E8008E778093E800089520919F
:10134000E4003091E50095E64091EC00842F817037
:1013500040FF23C08091E80080FD1DC080917B018B
:10136000882399F0853099F08091EB0085FD11C0BC
:101370004091E4005091E5002417350729F391507E
:1013800011F09A01E1CF84E0089582E0089583E0AE
:10139000089581E0089580E008954091E80042FFBB
:1013A000DDCF089540D042D08091D8008F778093D0
:1013B000D8008091D80080688093D8008091D800B0
:1013C0008F7D8093D80019BC82E089BD09B400FEEE
:1013D000FDCF10927B01109277011092790110924B
:1013E000780142E060E080E019DF8091E1008E7FCB
:1013F0008093E1008091E20081608093E20080911F
:10140000E20088608093E2008091E0008E7F80930C
:10141000E0000895E3E6F0E080818E7F808381E044
:1014200080937A01BFCF1092E20008951092E100FC
:1014300008951F920F920FB60F9211242F933F938E
:101440004F935F936F937F938F939F93AF93BF93CC
:10145000EF93FF938091E10082FF0AC08091E20048
:1014600082FF06C08091E1008B7F8093E10032D241
:101470008091E10080FF18C08091E20080FF14C0DD
:101480008091E2008E7F8093E2008091E200806193
:101490008093E2008091D80080628093D80019BCCC
:1014A00010927B010E9434018091E10084FF2FC0E3
:1014B0008091E20084FF2BC019BC82E089BD09B491
:1014C00000FEFDCF8091D8008F7D8093D800809161
:1014D000E1008F7E8093E1008091E2008F7E809317
:1014E000E2008091E20081608093E20080917701C8
:1014F000882311F084E007C08091E30087FD02C0DB
:1015000081E001C083E080937B010E9433018091E0
:10151000E10083FF27C08091E20083FF23C0809118
:10152000E100877F8093E10082E080937B0110924D
:1015300077018091E1008E7F8093E1008091E2004D
:101540008E7F8093E2008091E20080618093E200D0
:1015500042E060E080E062DE8091F000886080938D
:10156000F000B8D1FF91EF91BF91AF919F918F9112
:101570007F916F915F914F913F912F910F900FBE8F
:101580000F901F9018951F920F920FB60F92112473
:101590002F933F934F935F936F937F938F939F937B
:1015A000AF93BF93CF93DF93EF93FF93C091E90085
:1015B000CF708091EC00D82FD17080FDD0E81092D0
:1015C000E9008091F000877F8093F00078941ED02E
:1015D0001092E9008091F00088608093F000CD2B9C
:1015E000CF70C093E900FF91EF91DF91CF91BF9150
:1015F000AF919F918F917F916F915F914F913F91AB
:101600002F910F900FBE0F901F9018951F93CF939F
:10161000DF93CDB7DEB7AA970FB6F894DEBF0FBE43
:10162000CDBFECE7F1E08091F100819321E0E43857
:10163000F207C9F70E9439018091E80083FF32C1A7
:1016400080917C0190917D01953009F483C030F444
:101650009130A9F168F0933091F124C1983009F4E8
:10166000F0C0993009F4FCC0963009F01BC194C059
:10167000803821F0823809F015C108C080917801C6
:1016800090917901992389F082600FC08091800147
:101690008F70853008F006C18093E9008091EB00DF
:1016A00085FB882780F91092E9009091E800977FE8
:1016B0009093E8008093F1001092F100CDC0282FA4
:1016C0002D7F09F0EFC0882319F0823061F0EAC065
:1016D00080917E01813009F0E5C0933009F080E00F
:1016E000809379012EC080917E0181112AC0809162
:1016F00080018F702FEF280F243008F0D3C0809323
:10170000E9002091EB0020FF1CC0933021F4809170
:10171000EB00806214C09091EB0090619093EB001D
:1017200021E030E0A90102C0440F551F8A95E2F77D
:101730004093EA001092EA008091EB008860809369
:10174000EB001092E9008091E800877F8093E80029
:10175000D7DDA8C08111A6C010917E011F778091AE
:10176000E3008078812B8093E3008091E800877FFD
:101770008093E800C5DD8091E80080FFFCCF809178
:10178000E30080688093E300111102C082E001C091
:1017900083E080937B0186C08058823008F082C04D
:1017A00080917E0190917F018C3D53E0950771F50A
:1017B00083E08A838AE289834FB7F894DE01139627
:1017C00020E03EE051E2E32FF0E050935700E49137
:1017D00020FF03C0E295EF703F5FEF708E2F90E027
:1017E000EA3010F0C79601C0C0968D939D932F5F8D
:1017F000243149F74FBF8091E800877F8093E8004C
:101800006AE270E0CE01019650DC15C06091800163
:1018100070918101AE014F5F5F4F0E943E01BC019C
:10182000892B09F43FC09091E800977F9093E800DE
:1018300089819A8195DC8091E8008B778093E8001C
:1018400031C0803879F58091E800877F8093E80087
:10185000809177018093F1008091E8008E7776CFB8
:10186000811120C080917E0190917F01992702977C
:10187000CCF48091E800877F8093E80080917E011E
:10188000809377013DDD80917701811106C08091C1
:10189000E30087FD02C081E001C084E080937B010A
:1018A0000E9435018091E80083FF0AC08091E80022
:1018B000877F8093E8008091EB0080628093EB004B
:1018C000AA960FB6F894DEBF0FBECDBFDF91CF91C1
:1018D0001F9108950895CF9380917B01882399F0FB
:1018E000C091E900CF709091EC00892F817090FD3C
:1018F00080E8C82B1092E9008091E80083FD86DE25
:10190000CF70C093E900CF910895CF93DF932091DA
:10191000E80023FF38C0FC01208130E040918001C5
:10192000509181014217530771F520917D012E3F9F
:1019300081F02F3F41F520917C01213221F5EC010E
:101940008091E800877F8093E800DADC81E088AF4F
:101950001AC020917C01213AB1F42091E800277F40
:101960002093E8002091E80020FFFCCFFC01838554
:1019700081508093F1008091E8008E778093E80099
:10198000DF91CF91BDCCDF91CF910895CF93DF93BD
:10199000EC01FC013C968DE2DF011D928A95E9F78E
:1019A00082E08C83898761E0CE0101966CDC88231C
:1019B00031F061E0CE010696DF91CF9164CC80E0FA
:1019C000DF91CF910895EF92FF920F931F93CF93E2
:1019D000DF9300D0CDB7DEB720917B01243009F032
:1019E00000C18C01FC0186818F708093E900809199
:1019F000E80082FFBDC086818F708093E9001A8263
:101A000019827801FCE0EF0EF11CAE014F5F5F4FD1
:101A10006FE070E0C70100DBF801853021F480AD94
:101A2000882399F3A5C084859585A685B7858535D6
:101A30009345A244B34461F4F801918D83859817CE
:101A400038F4808D8F7121F4828D8150803180F047
:101A50008091EB0080628093EB00F80181818F70B0
:101A60008093E9008091EB0080628093EB0080C05E
:101A70001A8219827801FBE1EF0EF11CF801628DE8
:101A800070E0AE014F5F5F4FC701C6DA853029F4C1
:101A9000F80180AD882391F36BC08091E8008B77CB
:101AA0008093E800F801808D87FF04C081818F70EA
:101AB0008093E900C8010E943D0191E09827F80158
:101AC00097AB45E553E562E473E543A754A765A7E3
:101AD00076A7408951896289738947A750AB61AB6A
:101AE00072AB448955896689778943AB54AB65AB42
:101AF00076AB811109C0452B462B472B29F08091ED
:101B0000EB0080628093EB00F80186818F708093F8
:101B1000E9008091EB00F80185FF04C080AD8823C7
:101B2000C1F326C081818F708093E9008091EB0022
:101B300085FF05C0F80180AD8823C1F319C01A8262
:101B400019827801FBE2EF0EF11CAE014F5F5F4F8F
:101B50006DE070E0C701C9D9853029F4F80180AD86
:101B6000882399F305C08091E8008E778093E80080
:101B7000F80180AD8823A9F126812F7081E090E0E3
:101B8000AC0102C0440F551F2A95E2F74093EA00CA
:101B90001092EA0021812F7001C0880F2A95EAF780
:101BA0008093EA001092EA0086818F708093E900AA
:101BB0008091EB0080618093EB008091EB00886066
:101BC0008093EB0081818F708093E9008091EB001E
:101BD00080618093EB008091EB0088608093EB0044
:101BE00010AE0F900F90DF91CF911F910F91FF904A
:081BF000EF900895F894FFCF77
:101BF800A0860100008340000001044000000101AC
:101C080000000000000000000000000000000000CC
:101C180000000000000000000000000000000000BC
:101C2800000000000000000000000000007000003C
:101C3800000000000A000000000000000000000092
:101C48008000021F0000004C55464100000000447F
:101C5800617461666C617368204469736B0000305D
:041C68002E303000EA
:00000001FF
